:020000040800F2
:10000000802A00200D0200085D3A0008E332000853
:10001000593A00083D030008E560000800000000B0
:100020000000000000000000000000000D3D00087E
:100030000D080008000000000B3D00082502000824
:1000400027020008270200082702000827020008EC
:1000500027020008270200082702000827020008DC
:1000600027020008270200082702000827020008CC
:1000700027020008270200082702000827020008BC
:1000800027020008270200082702000827020008AC
:10009000270200082702000827020008270200089C
:1000A00027020008513E0008270200082702000826
:1000B000270200082702000827020008270200087C
:1000C000270200082702000827020008270200086C
:1000D000270200082702000827020008270200085C
:1000E000270200082702000827020008270200084C
:1000F000270200082702000827020008270200083C
:10010000270200082702000827020008270200082B
:10011000270200082702000827020008270200081B
:10012000270200082702000827020008270200080B
:1001300027020008270200082702000827020008FB
:1001400027020008270200082702000827020008EB
:1001500027020008270200082702000827020008DB
:1001600027020008270200082702000827020008CB
:1001700027020008653A0008270200080000000076
:1001800027020008270200082702000827020008AB
:10019000270200082702000827020008270200089B
:1001A000270200082702000827020008270200088B
:1001B000270200082702000827020008270200087B
:1001C000270200082702000800000000270200089C
:1001D000270200082702000827020008270200085B
:1001E000270200082702000827020008270200084B
:1001F0002702000827020008DFF80CD000F08CF876
:100200000048004791610008802A00200648804786
:1002100006480047FEE7FEE7FEE7FEE7FEE7FEE7EB
:10022000FEE7FEE7FEE7FEE7353E0008F9010008BD
:100230002DE9F05F0546002092469B46884606461B
:10024000814640241BE0284641464746224600F0AE
:1002500053F853465A46C01A914110D311461846D6
:10026000224600F03AF82D1A67EB01084F46224665
:100270000120002100F031F817EB00094E41201E4B
:10028000A4F10104DFDC484631462A464346BDE876
:10029000F09F40EA01039B0703D009E008C9121F41
:1002A00008C0042AFAD203E011F8013B00F8013B30
:1002B000521EF9D27047D2B201E000F8012B491E5C
:1002C000FBD270470022F6E710B513460A460446F3
:1002D0001946FFF7F0FF204610BD202A04DB203A24
:1002E00000FA02F1002070479140C2F1200320FA89
:1002F00003F3194390407047202A04DB203A21FA87
:1003000002F00021704721FA02F3D040C2F120022E
:100310009140084319467047064C074D06E0E068D7
:1003200040F0010394E8070098471034AC42F6D33C
:10033000FFF766FFBC620008DC62000800BFFEE752
:100340000146D1F8BC0290F81824022A0FD090F888
:100350001824032A0BD090F81824052A07D090F807
:100360001824062A03D090F81824092A19D1022249
:1003700080F81824002280F81024002340F2114253
:100380001354521C1354521C135490F81834521C1A
:1003900013540023521C13540022C0F80024C0F848
:1003A000042470470146D1F8BC0290F818240A2AA8
:1003B00015D1022280F81824002280F8102400238E
:1003C00040F211421354521C1354521C135490F80F
:1003D0001834521C13540023521C135414E00A22E4
:1003E00080F818240E2280F81024002340F21142D5
:1003F0001354521C1354521C135490F81834521CAA
:1004000013540023521C13547047000070B5054666
:100410000E46D5F8BC4294F8180402280FD094F880
:10042000180403280BD094F81804052807D094F872
:100430001804062803D094F81804092819D10220BA
:1004400084F81804002084F81004002140F21140C0
:100450000155401C0155401C015594F81814401CCE
:1004600001550021401C01550020C4F80004C4F8C7
:1004700004040848407D00F0100030B1284604F024
:1004800026FF284604F076FD02E0708800F070FB3D
:1004900070BD0000D000002070B506460D46D6F8AD
:1004A000BC42E88808B394F81804022803D094F8F2
:1004B0001804052814D16888C4F80004E888C4F832
:1004C0000404032084F8180494F8181440F214402B
:1004D000015521463046D4F8042403F07EFD23E084
:1004E0002946304603F06DFD1EE094F818040528F7
:1004F00003D094F81804022812D1012084F81904BA
:10050000062084F81804002140F211400155401CD7
:100510000155401C015594F81814401C015503E086
:100520002946304603F04DFD70BD70B50446D4F841
:10053000BC52012205F58361204603F06FFD70BDBA
:1005400070B50546D5F8BC42D5F8C06294F81804D9
:10055000032802D0062865D137E0D4F8040420B37C
:10056000042084F81804002140F211400155401C79
:100570000155401C015594F81814401C0155D4F83D
:10058000000450B92078412807D1D4F8080404F5B4
:1005900082620021B369984716E0D4F8080404F594
:1005A00082620121B36998470EE0052084F818049F
:1005B000002140F211400155401C0155401C0155DD
:1005C00094F81814401C01552DE094F819040128E2
:1005D00010D1072084F81804012140F21140015580
:1005E0000021401C0155401C015594F81814401C72
:1005F000015516E094F8190498B90F48007D00F0F1
:10060000040070B1022084F81804002140F2114067
:100610000155401C0155401C015594F81814401C0C
:10062000015500E000BF00BF062204F582612846A4
:1006300003F0F4FC70BD0000D000002070B505464A
:10064000D5F8BC42002084F819042248007D00F04F
:10065000040078B1062084F81804002140F211400B
:100660000155401C0155401C015594F81814401CBC
:10067000015570BD082084F81804002140F2114093
:100680000155401C0155401C015594F81814401C9C
:100690000155284604F01BFE00BF00BF00BF00BF8D
:1006A00000BFBFF34F8F00BF00BF00BF0A48006804
:1006B00000F4E06009490843001D0749086000BFD5
:1006C00000BF00BFBFF34F8F00BF00BF00BF00BF20
:1006D00000BFFDE7D00000200CED00E00000FA05AF
:1006E0002DE9F04706460D46D6F8BC42D6F8C08242
:1006F000E888002879D094F81804022803D094F8E8
:100700001804092866D16888C4F80004E888C4F889
:100710000404D4F8000400BBD4F80404032801D96D
:10072000022000E0092084F81804002140F2114062
:100730000155401C0155401C015594F81814401CEB
:10074000015500202070212060704120A0700322FC
:100750002146304603F062FC56E0D4F8000401283C
:1007600024D9092084F81804002140F211400155D1
:10077000401C0155401C015594F81814401C0155AB
:10078000D4F80004801ED4F8081401EB8027D4F8B4
:10079000042421463846D8F8143098478146494603
:1007A0003046D4F8042403F039FC2DE00F2084F8FF
:1007B0001804002140F211400155401C0155401C15
:1007C000015594F81814401C01552946304603F091
:1007D000F8FB19E00020C4F80404C4F8000429461A
:1007E000304603F0EEFB0FE0FFE7022084F8180428
:1007F000002140F211400155401C0155401C01559B
:1008000094F81814401C0155BDE8F08770477047F4
:1008100010B5002201B909E0012901D10A0205E061
:10082000022901D10A0201E04FF440720B2800D9DD
:10083000001D124B1B6823F44073104C23602346A9
:100840001B681343236023461B6823F0F8032360CF
:1008500023461B68022444EAC0042343074C236058
:1008600023461B6843F48033236000BF00BF00BFF2
:10087000BFF34F8F00BF00BF00BF10BD103C024050
:10088000174A126822F44072154B1A60032906D1E8
:100890001A461268DB131A43114B1A600EE0022944
:1008A00006D10F4A126842F400420D4B1A6005E06F
:1008B0000B4A126842F00402094B1A60084A126897
:1008C0004FF4803343EA00231A43054B1A6000BFFC
:1008D00000BF00BFBFF34F8F00BF00BF00BF704716
:1008E000103C02400B4A126822F44072094B1A6015
:1008F0001A4612681A601A46126842F001021A601B
:10090000017000BF00BF00BFBFF34F8F00BF00BF2B
:1009100000BF7047103C024010B50D49096821F432
:1009200040710B4C21602146096841F440712160FF
:100930002146096841F0010121600260436000BF67
:1009400000BF00BFBFF34F8F00BF00BF00BF10BD8F
:10095000103C02400C4A126822F440720A4B1A60A2
:100960001A46126842F480721A601A46126842F0FF
:1009700001021A60018000BF00BF00BFBFF34F8FAC
:1009800000BF00BF00BF7047103C02400C4A126815
:1009900022F440720A4B1A601A46126842F400723E
:1009A0001A601A46126842F001021A60016000BF24
:1009B00000BF00BFBFF34F8F00BF00BF00BF704735
:1009C000103C02401D48006800F0020028B11C489D
:1009D000806940F020001A4988611848006800F0DA
:1009E000100028B11648806940F010001449886151
:1009F0001248006800F0200028B11148806940F0DA
:100A000008000F4988610D48006800F0400028B1D7
:100A10000B48806940F00400094988610748006874
:100A200000F0800028B10648806940F002000449C7
:100A30008861F22001490860704700000C3C0240C8
:100A4000600A002070B50446002500201449886122
:100A500000F088FA054609E0601C38B124B100F0C6
:100A600081FA401BA04201D9032070BD0D480068E7
:100A700000F480300028EFD10A48006800F0F2004E
:100A800018B1FFF79FFF0120EFE70648006800F06C
:100A9000010010B10120034908600020E5E70000D3
:100AA000600A00200C3C0240014600201C4A914292
:100AB00003D2B1F1006F00D330E01A4A914204D260
:100AC000174A914201D3012028E0174A914204D2EB
:100AD000144A914201D3022020E0144A914204D2E8
:100AE000114A914201D3032018E0114A914204D2E5
:100AF0000E4A914201D3042010E00E4A914204D2E2
:100B00000B4A914201D3052008E00B4A914204D2DE
:100B1000084A914201D3062000E0072070470000F8
:100B200000800008000001080080010800000208A1
:100B3000000004080000080800000C0870B50A480E
:100B40000468001D0568001D0668344454B108227D
:100B50000649204602F0C7FB04220449103128460A
:100B600002F0C1FB70BD000020F4F01F4E00002019
:100B700070B5044600F0F6F906462546681C10B12B
:100B800004480078054400BF00F0ECF9801BA8423F
:100B9000FAD370BD8C0000202DE9F04104460E46CA
:100BA0000127002500BF2548007D012802D1022031
:100BB000BDE8F08101202149087500BF4CF250309A
:100BC000FFF740FF0746002F30D1401E30602068FD
:100BD000012810D1207C6168FFF752FE4CF25030A2
:100BE000FFF730FF07461648006848F204018843C3
:100BF000134908601AE0A56812E0217C2846FFF737
:100C000007FE4CF25030FFF71DFF07460C48006806
:100C100020F0FA000A4908600FB1356005E06D1C4C
:100C2000D4E902100844A842E7D800BF00BF002062
:100C30000249087500BF3846BAE70000600A002084
:100C4000103C02400348006840F000400149086041
:100C500000207047103C02402DE9F04106460F4647
:100C600014461D464FF0010800BF2248007D0128B0
:100C700002D10220BDE8F08101201E49087500BFA5
:100C80004CF25030FFF7DEFE8046B8F1000F29D15C
:100C900036B1012E09D0022E0CD0032E15D10EE054
:100CA000E1B23846FFF71EFE10E0A1B23846FFF76A
:100CB00051FE0BE021463846FFF768FE06E022466B
:100CC0002B463846FFF728FE00E000BF00BF4CF27D
:100CD0005030FFF7B7FE80460748006820F001005B
:100CE0000549086000BF00200249087500BF404662
:100CF000C0E70000600A0020103C024000200949C3
:100D0000096801F0004159B10749064A0C3A1160DF
:100D1000064911600349096801F0004101B1012051
:100D200070470000103C024023016745AB89EFCDBE
:100D3000F8B502460B46002100250024002000BF24
:100D4000E4E0012606FA01F51E6806EA0504AC4255
:100D500071D15E68012E08D05E68022E05D05E68F3
:100D6000112E02D05E68122E13D190684F00032618
:100D7000BE40B0434F00DE68BE40304390605068D4
:100D800001268E40B0431E79C6F300168E403043D4
:100D90005060D0684F000326BE40B0434F009E68AD
:100DA000BE403043D0605E68022E02D05E68122ED4
:100DB00013D1CF0802F1200656F827004E07F70E90
:100DC0000F26BE40B0434F07FF0E1E69BE403043A2
:100DD000CF0802F1200646F8270010684F000326CE
:100DE000BE40B0431E7906F003064F00BE403043BC
:100DF00010605E6806F08056B6F1805FA8D100BF33
:100E0000444E366846F48046424F3E603E46366861
:100E100006F48046009600BF00BF3F4E8F0856F88C
:100E200027008E07370F0F26BE40B0433B4EB2421D
:100E300002D100262EE068E0394EB24201D10126EF
:100E400028E0384EB24201D1022623E0364EB242AB
:100E500001D103261EE0354EB24201D1042619E02D
:100E6000334EB24201D1052614E0324EB24201D1D6
:100E700006260FE0304EB24201D107260AE02F4E7F
:100E8000B24201D1082605E02D4EB24201D1092619
:100E900000E00A268F073F0FBE4030431E4E8F08EA
:100EA00046F82700274E3068A0435E6806F4803677
:100EB000B6F5803F00D12043224E3060361D3068A9
:100EC000A0435E6806F40036B6F5003F00D120432B
:100ED0001C4E361D3060361D3068A0435E6806F437
:100EE0008016B6F5801F00D12043164E08363060BC
:100EF000361D3068A0435E6806F40016B6F5001F84
:100F000000D120430F4E0C363060491C1029FFF4ED
:100F100018AFF8BD443802400838014000000240D4
:100F20000004024000080240000C02400010024091
:100F30000014024000180240001C02400020024041
:100F400000240240003C0140024613690B400BB1F3
:100F5000012000E0002070470AB1816101E00B042C
:100F600083617047014800687047000084000020DA
:100F7000024692F8410020282DD100BF92F840008F
:100F8000012801D102207047012082F8400000BFF3
:100F9000242082F841001068006820F001001368E6
:100FA00018601068006820F480501368186010689A
:100FB00000680843136818601068006840F001007A
:100FC00013681860202082F8410000BF002082F8DA
:100FD000400000BFD7E70220D5E710B502460B4618
:100FE00092F8410020282AD100BF92F84000012841
:100FF00001D1022010BD012082F8400000BF242052
:1010000082F841001068006820F001001468206038
:101010001068016821F4706141EA032110680160E1
:101020001068006840F0010014682060202082F8F9
:10103000410000BF002082F8400000BFDAE7022034
:10104000D8E7000010B504460CB9012010BD94F893
:10105000410028B9002084F84000204600F054F8F0
:10106000242084F841002068006820F001002168F5
:101070000860606820F070602168086120688068FE
:1010800020F4004021688860E068012805D1A0684C
:1010900040F400402168886004E0A06840F4044007
:1010A00021688860E068022802D1800221684860D7
:1010B0002068406813490843216848602068C06878
:1010C00020F400402168C860D4E904010843A16904
:1010D00040EA01202168C860D4E90701084321687B
:1010E00008602068006840F0010021680860002066
:1010F0006064202084F841000020206384F84200CE
:1011000000BFA3E70080000210B586B0044614219A
:1011100001A8FFF7D7F81949206888422CD100BFF1
:101120001748006840F00800154908600846006844
:1011300000F00800009000BF00BF4FF44050019045
:1011400012200290012003900320049004200590B7
:1011500001A90C48FFF7ECFD00BF094810300068FA
:1011600040F080700649103108600846006800F0C1
:101170008070009000BF00BF06B010BD006000404E
:1011800030380240000C02400348006803490978E7
:101190000844014908607047840000208C0000204A
:1011A00010B5032000F0BAF8002000F005F800F0B8
:1011B00047F8002010BD000070B588B00446002537
:1011C000002600222146192000F06AF8192000F0BC
:1011D00057F800BF1648006840F001001449086045
:1011E0000846006800F00100019000BF00BF02A99E
:1011F00003A801F0C9FB01F0EFFB45000D48B5FB6A
:10120000F0F0461E0C480D49086040F2E7310B48EB
:10121000C160466000210161816001F03EFF20B99C
:10122000064801F055FF08B070BD0120FBE7000043
:101230004438024040420F0000000140200A0020D4
:1012400008B500BF0D48006840F080500B490860A9
:101250000846006800F08050009000BF00BF00BF4B
:10126000081D006840F48040091D086008460068B9
:1012700000F48040009000BF00BF08BD403802402D
:1012800001460846002809DB00F01F0301229A40AE
:1012900043099B0003F1E023C3F8002100BF70471E
:1012A0002DE9F05F80460D461646002704F01CFF2E
:1012B000074639462A46334601F00700C0F1070ABF
:1012C000BAF1040F02D94FF0040A01E0C0F1070A95
:1012D000D14600F1040ABAF1070F02D24FF0000A1A
:1012E00001E0A0F1030AD4464FF0010A0AFA09FA14
:1012F000AAF1010A0AEA020A0AFA0CFA4FF0010BF3
:101300000BFA0CFBABF1010B0BEA030B4AEA0B04E3
:101310002146404604F0F0FEBDE8F09F00BF00F01B
:101320000702064B19684FF6FF031940044B0B43A5
:1013300043EA0221014B196000BF70470CED00E049
:101340000000FA0501460A680120C1F8FC030020EC
:1013500081F8F403906940F000609061506D024B99
:1013600018435065002070470300001070B5044614
:101370000D4615B1012D2CD116E0206A38B102F0CE
:10138000CFFC1548006820F006001349086020686B
:10139000D0F8000E20F001002168C1F8000ED4F84A
:1013A000000403F02EFC14E02068D0F8000E40F09A
:1013B00001002168C1F8000ED4F8000403F0C0FC5D
:1013C000206A28B10448006840F00600024908601D
:1013D00000BF00BF70BD000010ED00E002461068C5
:1013E000416200207047F0B5034615461868446A0C
:1013F00021B944EA05401E68B06219E01868806AA5
:1014000004EB1044002208E0186800F5827050F8E0
:10141000220004EB1044501CC2B2481E9042F3D884
:1014200044EA0547186800F582704E1E40F82670A1
:101430000020F0BD10B50446D4F8000403F017FBFB
:1014400010BD70B504460D46C5EBC50304F13C0163
:1014500001EB8301CA682946D4F8000403F04BFA73
:1014600070BD70B504460D46C5EBC50304F5FE71AD
:1014700001EB8301CA682946D4F8000403F0AEFAF0
:1014800070BD10B50446D4F8000403F0F3FA10BDA3
:1014900070B504460E4606F00F006168884201D917
:1014A000012070BD06F0800080280AD106F00F00F0
:1014B000C0EBC00104F13C0000EB81050120687025
:1014C00009E006F00F00C0EBC00104F5FE7000EB70
:1014D0008105002068700020A87006F00F002870B9
:1014E00000BF94F8BC03012801D10220D9E70120F4
:1014F00084F8BC0300BF2946206804F025FA00BF29
:10150000002084F8BC0300BF00BFCAE72DE9F04704
:1015100005460E4690461F464FF0000906F0800033
:1015200080280AD106F00F00C0EBC00105F13C0095
:1015300000EB81040120607009E006F00F00C0EBB1
:10154000C00105F5FE7000EB81040020607006F01C
:101550000F002070C4F80880E770607808B1207828
:10156000E080022F01D10020207100BF95F8BC035C
:10157000012802D10220BDE8F087012085F8BC03D4
:1015800000BF2146286803F0B9FE00BF002085F89F
:10159000BC0300BF4846EEE72DE9F04104460E4685
:1015A0001746984606F00F00C0EBC00104F5FE7028
:1015B00000EB8105EF60C5F814800020A861687019
:1015C00006F00F0028702069012800D12F6106F075
:1015D0000F0028B9227C2946206804F091F804E025
:1015E000227C2946206804F043FA0020BDE8F081FF
:1015F00070B504460D4605F00F006168884201D9B8
:10160000012070BD05F0800080280AD105F00F0090
:10161000C0EBC00104F13C0000EB810601207070BA
:1016200007E0C5EBC50104F5FE7000EB8106002064
:1016300070700120B07005F00F00307000BF94F89A
:10164000BC03012801D10220DBE7012084F8BC03A0
:1016500000BF3146206804F0BEF905F00F0028B93C
:10166000217C04F57172206804F036F900BF002077
:1016700084F8BC0300BF00BFC3E72DE9F041044676
:101680000E461746984606F00F00C0EBC00104F165
:101690003C0000EB8105EF60C5F814800020A861D4
:1016A0000120687006F00F0028702069012800D121
:1016B0002F6106F00F0028B9227C2946206804F02B
:1016C0001FF804E0227C2946206804F0D1F90020AC
:1016D000BDE8F0812DE9FE4F044620680290029D8E
:1016E000206804F0B0FB00287DD1206804F0EAFBFC
:1016F00008B9BDE8FE8F206804F0E4FB00F00200AA
:10170000022805D12068406900F002002168486184
:10171000206804F0D7FB00F01000102846D12068A4
:10172000806920F01000216888610298D0F820902C
:1017300009F00F00C0EBC00104F5FE7000EB810B57
:10174000C9F3434002281AD147F6F07009EA0000B5
:1017500030B3C9F30A12DBF80C10029804F0B7FB9F
:10176000C9F30A11DBF80C000844CBF80C00C9F3EC
:101770000A11DBF818000844CBF8180010E0C9F390
:10178000434006280CD1082204F57171029804F038
:101790009EFBC9F30A11DBF818000844CBF81800C7
:1017A0002068806940F0100021688861206804F09A
:1017B00089FB00F40020B0F5002F52D100262068EC
:1017C00004F050FB824649E00AF00100E8B3F1B2B0
:1017D000206804F06AFB804608F0010058B101213E
:1017E00005F5306000E043E200EB461081603146D1
:1017F000204602F071F908F00800082809D10821F4
:1018000005F5306000EB461081603146204602F05D
:1018100031F908F01000102805D1102105F53060CD
:1018200000EB4610816008F02000202805D120211F
:1018300005F5306000EB4610816008F40050B0F50B
:10184000005F08D14FF4005100E004E005F530607E
:1018500000EB46108160761C4FEA5A0ABAF1000F7D
:10186000B2D1206804F02EFB00F48020B0F5802F68
:101870007ED1206804F0ECFA8246002683E00AF06C
:10188000010000287CD0F1B2206804F0F5FA80460F
:1018900008F00100F0B306F00F010120884001902C
:1018A00040F634004159019821EA000040F6340125
:1018B0004851012105F5106000EB46108160206958
:1018C000012824D1C6EBC60104F13C0000EB8100E5
:1018D000C6EBC602C16804F13C0000EB82008068E0
:1018E0000144C6EBC60204F13C0000EB8200C1607B
:1018F0006EB9C6EBC60104F13C0000EB8100406903
:1019000028B904F571720121206803F0E5FFF1B2F6
:10191000204600E001E0FFF794FD08F008000828E9
:1019200005D1082105F5106000EB4610816008F034
:101930001000102805D1102105F5106000EB4610AD
:10194000816008F04000402805D1402105F5106075
:1019500000EB4610816008F00200022805D1022148
:1019600005F5106000EB4610816008F0800001E092
:101970000DE005E0802803D13146204602F06AF9E7
:10198000761C4FEA5A0ABAF1000F7FF478AF20684C
:1019900004F098FA00F00040B0F1004F1CD140F67E
:1019A0000400405920F0010140F60400415194F830
:1019B000F403012807D1002084F8F4030021204615
:1019C000FFF7D4FC02E0204600F07EFA2068406970
:1019D00000F0004021684861206804F073FA00F4C8
:1019E0000060B0F5006F0ED140F60800405900F0DD
:1019F000010010B1204600F0D9FA2068406900F4D7
:101A0000006021684861206804F05CFA00F0006022
:101A1000B0F1006F19D12068406900F000602168C2
:101A2000486194F8F40368B9012084F8F40320684D
:101A3000406DC0F38300C4F8F80301212046FFF78E
:101A400095FC02E0204600F0B1FA206804F03AFA72
:101A500000F48050B0F5805F7DD140F6040040591D
:101A600020F0010140F6040041511021206804F0EB
:101A7000BFF900273EE04FF67F3105F5106000EB1F
:101A80004710816005F5106000EB4710006820F4F6
:101A9000001105F5106000EB4710016005F51060BE
:101AA00000EB4710006840F0006105F5106000EBA6
:101AB000471001604FF67F3105F5306000EB4710AD
:101AC000816005F5306000EB4710006820F40011DC
:101AD00005F5306000EB4710016005F5306000EB64
:101AE0004710006840F0006105F5306000EB4710DA
:101AF00001607F1C6068B842BDD840F61C004059A8
:101B000040F0011140F61C004151206B70B1D5F836
:101B1000840840F00B01C5F8841840F64400405991
:101B200040F00B0140F6440041510FE040F6140034
:101B3000405942F22B01084340F614014851081F56
:101B4000405940F00B014FF401604151D5F80008B5
:101B500020F4FE6000E00DE0C5F80008217C04F5EB
:101B60007172206803F0B8FE2068406900F480506C
:101B700021684861206804F0A5F900F40050B0F530
:101B8000005F17D1206803F021FC206804F048F9B9
:101B9000E06000F01BFF0090227B2068009904F0B9
:101BA000E1F9204600F078F92068406900F400501F
:101BB00021684861206804F085F900F008000828D1
:101BC00008D1204600F087F92068406900F008003D
:101BD00021684861206804F075F900F48010B0F5C0
:101BE000801F0AD100263146204600F043F82068C5
:101BF000406900F4801021684861206804F062F9AF
:101C000000F40010B0F5001F0AD10026314620462E
:101C100000F039F82068406900F40010216848613C
:101C2000206804F04FF900F08040B0F1804F08D1F7
:101C30002046FFF7FFFB2068406900F080402168E4
:101C40004861206804F03EF900F0040004280FD138
:101C50002068D0F8049009F00400042802D120463E
:101C6000FFF70FFC2068406840EA090021684860DF
:101C700000BF3EE570B504460D462946D4F8000481
:101C800002F05CFF70BD70B504460D462946D4F8DD
:101C9000000402F056FF70BD70B58AB0044614B956
:101CA00001200AB070BD266894F8BD0328B9002051
:101CB00084F8BC03204600F0A9F8032084F8BD0393
:101CC000F06B00F4807008B900212161206803F0F6
:101CD0000FFD282204F110016846FEF7DAFA94E8B5
:101CE0000F0003F087FB20B1022084F8BD03012020
:101CF000D7E70021206804F0FBF8002531E001213E
:101D0000C5EBC50204F13C0000EB82004170C5EB5D
:101D1000C50104F13C0000F82150C5EBC50100EB02
:101D20008100C5800021C5EBC50204F13C0000EB39
:101D30008200C170C5EBC50204F13C0000EB8200DB
:101D40008160C5EBC50204F13C0000EB8200C1607C
:101D5000C5EBC50204F13C0000EB82004161681C48
:101D6000C5B26068A842CAD800252AE00021C5EBA8
:101D7000C50204F5FE7000EB82004170C5EBC501A1
:101D800004F5FE7000F821500021C5EBC50200EB00
:101D90008200C170C5EBC50204F5FE7000EB820045
:101DA0008160C5EBC50204F5FE7000EB8200C160E6
:101DB000C5EBC50204F5FE7000EB82004161681CB2
:101DC000C5B26068A842D1D8282204F11001684643
:101DD000FEF75FFA94E80F0003F08EFB20B10220BB
:101DE00084F8BD0301205CE7002084F8380001205E
:101DF00084F8BD03606A012802D12046FFF7A2FAE9
:101E0000206803F069FB00204BE7000010B586B0A6
:101E10000446142101A8FEF755FA1C49206888429F
:101E200032D100BF1A48006840F00200184908602B
:101E30000846006800F00200009000BF00BF4FF4A9
:101E40004040019002200290002003900320049063
:101E50000C20059001A90F48FEF76AFF00BF0C484F
:101E6000006840F000500A4908600846006800F029
:101E70000050009000BF00BF002201214D20FFF75D
:101E80000FFA4D20FFF7FCF906B010BD000004402A
:101E9000303802400004024070B504460125E06875
:101EA00008B9002506E0E068022801D1012501E01B
:101EB000FEF7ADFC2946D4F8000402F0BEFED4F8CB
:101EC000000402F071FE70BD10B50446D4F80004A1
:101ED00002F097FE10BD10B50446D4F8000402F0DD
:101EE0009BFE10BD70B504460D4600BF94F8BC03C0
:101EF000012801D1022070BD012084F8BC0300BF7D
:101F000084F838502946206804F00DF800BF0020FE
:101F100084F8BC0300BF00BFEDE710B5044604F52C
:101F20007171D4F8000402F09FFE10BD10B5044694
:101F300000BF94F8BC03012801D1022010BD01208C
:101F400084F8BC0300BF206803F0B6FA206803F0F1
:101F500031FF00BF002084F8BC0300BF00BFEDE7E5
:101F600010B5044600BF94F8BC03012801D102203B
:101F700010BD012084F8BC0300BF206803F0B8FB4B
:101F8000206804F063F830B100BF002084F8BC037F
:101F900000BF0120ECE7206803F09EFA00BF00209C
:101FA00084F8BC0300BF00BFE2E7000010B50446A0
:101FB000D4F8000402F0C4FE2068D0F8000E40F00F
:101FC00001002168C1F8000E206A28B103480068AA
:101FD00040F006000149086010BD000010ED00E06F
:101FE00038B5002400BF2048006840F080501E49EA
:101FF00008600846006800F08050009000BF00BFF5
:102000001A48006840F4803018490860FEF7AAFFBB
:10201000044607E0FEF7A6FF001BB0F57A7F01D962
:10202000032038BD1148406800F48030B0F5803F8F
:10203000F0D10E48006840F400300C490860FEF70B
:1020400091FF044607E0FEF78DFF001BB0F57A7F95
:1020500001D90320E5E70548406800F40030B0F5F9
:10206000003FF0D10020DCE7403802400070004023
:102070000348006840F48070014908607047000020
:10208000007000402DE9F843044600260025002793
:10209000A846A946207800F0010088B100BFFE489C
:1020A000006820F40000FC49086008460068616B85
:1020B0000843F949086000BF606B08B94FF0010898
:1020C000206800F40020B0F5002F13D1F2488430CE
:1020D000006820F44010E16B0843EF498431086048
:1020E000E06BB0F5801F01D14FF00108E06B08B93B
:1020F0004FF00109206800F48010B0F5801F13D163
:10210000E5488430006820F44000216C0843E2492F
:1021100084310860206CB0F5800F01D14FF00108C8
:10212000206C08B94FF00109206800F08070B0F110
:10213000807F01D14FF00108207800F02000202896
:1021400070D100BFD4483830006840F08050D24988
:10215000383108600846006800F08050009000BFE9
:1021600000BFCE48006840F48070CC490860FEF79C
:10217000F9FE064607E0FEF7F5FE801B642802D94B
:102180000320BDE8F883C548006800F4807000288B
:10219000F1D0C1486830006800F4407585B3208EE6
:1021A00000F44070A8422BD0BB486830006820F48F
:1021B0004075B9486830006840F48030B6496831ED
:1021C00008600846006820F4803008600846056012
:1021D000006800F0010098B1FEF7C4FE064608E072
:1021E000FEF7C0FE801B41F28831884201D90320EE
:1021F000C7E7A94868300068C0F340000028EFD066
:1022000000BF208E00F44070B0F5407F0BD1A24893
:10221000006820F4F810A24A216B114008439E493F
:10222000086006E010E09C48006820F4F8109A4925
:102230000860994868300068218EC1F30B0108439B
:1022400095496831086000BF207800F01000102820
:1022500010D100BF90488430006820F080708E4913
:102260008431086008460068A16B08438A498431BC
:10227000086000BF208800F48040B0F5804F09D18D
:1022800085488830006820F44030616E08438249F8
:1022900088310860208800F40040B0F5004F09D173
:1022A0007D488830006820F44020A16E08437A49B8
:1022B00088310860206800F48030B0F5803F09D193
:1022C00075488830006820F44010E16E0843724978
:1022D00088310860206800F40030B0F5003F09D173
:1022E0006D488830006820F44000216F08436A4937
:1022F00088310860207800F04000402809D1664805
:102300008830006820F00300616C0843624988311E
:102310000860207800F08000802809D15E4888306D
:10232000006820F00C00A16C08435B49883108600C
:10233000208800F48070B0F5807F09D1564888303D
:10234000006820F03000E16C084353498831086090
:10235000208800F40070B0F5007F09D14E48883025
:10236000006820F0C000216D08434B4988310860A7
:10237000208800F48060B0F5806F09D1464888302D
:10238000006820F44070616D08434349883108605B
:10239000208800F40060B0F5006F09D13E48883015
:1023A000006820F44060A16D08433B498831086013
:1023B000208800F48050B0F5805F09D1364888301D
:1023C000006820F44050E16D0843334988310860CB
:1023D000208800F40050B0F5005F09D12E48883005
:1023E000006820F44040216E08432B498831086082
:1023F000206800F48000B0F5800F09D126488830AD
:10240000006820F08060A16F08432349883108608C
:10241000206800F40010B0F5001F0FD11E4888306E
:10242000006820F00060E16F08431B4988310860B4
:10243000E06FB0F1006F01D14FF00109207800F09A
:102440000800082801D14FF00109206800F480201D
:10245000B0F5802F09D110488830006820F0407016
:10246000616F08430C4988310860206800F400005F
:10247000B0F5000F0AD108488830006820F080507D
:10248000D4F880100843044988310860206800F0BF
:102490008060B0F1806F05E00838024000700040B5
:1024A000FFFCFF0F08D1CC48006820F00050D4F8A2
:1024B00084100843C8490860206800F00060B0F14B
:1024C000006F0AD1C448001F006820F00070D4F8E3
:1024D00088100843C049091F0860206800F0805038
:1024E000B0F1805F0AD1BC48001F006820F0806016
:1024F000D4F88C100843B849091F0860B8F1010FDF
:1025000003D02068B0F1007F7ED1B34890380068D6
:1025100020F08060B04990390860FEF723FD064640
:1025200006E0FEF71FFD801B642801D9032028E682
:10253000A94890380068C0F3C0600028F1D1207825
:1025400000F00100B8B1606BA8B9A3480C3800686E
:10255000C0F30145A0480C380068C0F30367606809
:10256000800140EA054040EA0761207A41EA0070B4
:1025700099490C390860206800F40020B0F5002F5C
:1025800003D1E06BB0F5801F09D0206800F4801003
:10259000B0F5801F24D1206CB0F5800F20D18E487B
:1025A0000C380068C0F301458B480C380068C0F354
:1025B00002776068800140EA0541207B41EA0060C3
:1025C00040EA077084490C3908608348001F00689E
:1025D00020F01F00616A491E08437F49091F0860F7
:1025E000206800F08070B0F1807F17D17A480C38F5
:1025F0000068C0F3036578480C380068C0F30277C0
:1026000060688101208A00E036E041EA004040EA4B
:10261000056040EA077070490C390860206800F0D6
:102620000070B0F1007F0DD160688101208A41EA1D
:102630000041207B41EA0061207A41EA007066494E
:102640000C39086064489038006840F08060624946
:1026500090390860FEF786FC064606E0FEF782FC2D
:10266000801B642801D903208BE55B489038006803
:10267000C0F3C0600028F1D0B9F1010F7ED15648F7
:102680009038006820F08050534990390860FEF778
:1026900069FC064606E0FEF765FC801B642801D94C
:1026A00003206EE54C4890380068C0F34070002865
:1026B000F1D1206800F40020B0F5002F01D1E06BCB
:1026C00038B1206800F48010B0F5801F22D1206C52
:1026D00000BB414808380068C0F301453E4808384F
:1026E0000068C0F302776069800140EA0541207EFE
:1026F00041EA006040EA0770374908390860081D60
:10270000006820F4F851A06A401E41EA00203249D6
:10271000091F0860206800F40010B0F5001F19D1EF
:10272000E06FB0F1006F15D12B4808380068C0F396
:102730000365294808380068C0F3027760698101A1
:10274000208C41EA004040EA056040EA07702249D7
:1027500008390860207800F00800082820D11E48B9
:1027600008380068C0F303651B4808380068C0F3E8
:1027700001476069800140EA074000E02AE040EA42
:102780000561207F41EA0070134908390860081D7F
:10279000006820F44030E16A08430F49091F0860CF
:1027A0000D489038006840F080500B49903908601F
:1027B000FEF7D8FB064606E0FEF7D4FB801B642834
:1027C00001D90320DDE4044890380068C0F340706C
:1027D0000028F1D00020D4E4903802407047000077
:1027E00070B504460D4600260CB9012070BD5C484A
:1027F000006800F00F00A8420ED25948006820F08F
:102800000F002843564908600846006800F00F0092
:10281000A84201D00120E9E7207800F00200022858
:102820001DD1207800F00400042805D14D4800682F
:1028300040F4E0504B490860207800F00800082878
:1028400005D14848006840F4604046490860454862
:10285000006820F0F000A168084342490860207831
:1028600000F0010090B36068012807D13D480838A6
:102870000068C0F34040A0B90120B7E760680228B3
:1028800007D1384808380068C0F3406048B90120D3
:10289000ACE7344808380068C0F3400008B90120AC
:1028A000A4E73048006820F00300616808432D4920
:1028B0000860FEF757FB064609E0FEF753FB801B56
:1028C00041F28831884202D903208FE707E025488A
:1028D000006800F00C006168B0EB810FEDD120487A
:1028E000006800F00F00A8420ED91D48006820F0D3
:1028F0000F0028431A4908600846006800F00F00DE
:10290000A84201D0012071E7207800F004000428DB
:1029100007D11448006820F4E050E16808431149E9
:102920000860207800F00800082808D10D480068E9
:1029300020F46040216940EAC1000A49086000F0C3
:102940005BF808490968C1F30311074A515CC840A4
:102950000649086006480068FEF72EFC002045E79F
:10296000003C0240083802406062000890000020ED
:10297000880000200348006840F4002001490860F6
:1029800070470000003802400F2202600D4A1268B2
:1029900002F0030242600B4A126802F0F002826009
:1029A000084A126802F4E052C260064A126802F451
:1029B0006042D2080261044A126802F00F020A6003
:1029C0007047000008380240003C0240014800689F
:1029D000704700009000002000B5FFF7F7FF0449A2
:1029E0000968C1F34231034A515CC84000BD000090
:1029F00008380240706200082DE9F04700240025E5
:102A00000026A1462548006800F00C0020B10428EB
:102A100005D008283AD105E0DFF8849039E0DFF8E6
:102A2000849036E01D48001F006800F03F041B48FA
:102A3000001F006800F4800078B11A481749091F88
:102A40000968C1F38811A0FB0170014622460023EA
:102A50003846FDF7EDFB05460EE011480F49091F0A
:102A60000968C1F38811A0FB0170014622460023CA
:102A70003846FDF7DDFB05460848001F0068C0F337
:102A80000140401C4600B5FBF6F902E0DFF810906B
:102A900000BF00BF4846BDE8F0870000083802408C
:102AA0000024F40040787D0170B586B006460C46DF
:102AB000154636BB00BF2748006840F00100254995
:102AC00008600846006800F00100009000BF00BFE9
:102AD00088150190022002900320049000200390AA
:102AE000059001A91C48FEF723F91A482838006808
:102AF00020F0EC6044EA05010843164928390860D3
:102B000025E000BF1348006840F004001149086048
:102B10000846006800F00400009000BF00BF4815A0
:102B20000190022002900320049000200390059061
:102B300001A90A48FEF7FCF806482838006820F08A
:102B4000784044EAC501084302492839086006B0C4
:102B500070BD000030380240000002400008024012
:102B600010B50648006800F08000802805D1FFF706
:102B700035FE80200149891C087010BD0C380240C8
:102B8000F8B5044600270CB90120F8BD207800F004
:102B90000100002871D0F948006800F00C000428FA
:102BA0000DD0F648006800F00C00082813D1F34857
:102BB000001F006800F48000B0F5800F0BD1EF48D3
:102BC00008380068C0F34040002869D060680028D9
:102BD00066D10120D9E700BF6068B0F5803F08D119
:102BE000E6480838006840F48030E4490839086055
:102BF0002EE0606868B9E1480838006820F4803049
:102C0000DE49083908600846006820F48020086022
:102C10001EE06068B0F5A02F0DD1D84808380068D4
:102C200040F48020D549083908600846006840F41F
:102C3000803008600CE0D1480838006820F480300B
:102C4000CE49083908600846006820F480200860F2
:102C500000BF606890B1FEF785F9054606E0FEF713
:102C600081F9401B642801D903208EE7C348083846
:102C70000068C0F340400028F1D011E0FEF772F97F
:102C8000054606E0FEF76EF9401B642801D90320D3
:102C90007BE7BA4808380068C0F340400028F1D10B
:102CA000207800F00200022869D1B448006800F0E2
:102CB0000C0058B1B148006800F00C0008281CD185
:102CC000AE48001F006800F48000B0B9AB48083877
:102CD0000068C0F3400020B1E068012801D0012065
:102CE00053E7A6480838006820F0F800216940EA58
:102CF000C100A2490839086041E0E06828B39F4854
:102D00000838006840F001009C4908390860FEF767
:102D100029F9054606E0FEF725F9401B022801D9EE
:102D2000032032E7954808380068C0F340000028C7
:102D3000F1D092480838006820F0F800216940EA94
:102D4000C1008E490839086019E08C4808380068CD
:102D500020F00100894908390860FEF703F90546AB
:102D600006E0FEF7FFF8401B022801D903200CE71C
:102D7000824808380068C0F340000028F1D120786C
:102D800000F00800082836D16069D0B17B486C306B
:102D9000006840F0010079496C310860FEF7E2F804
:102DA000054606E0FEF7DEF8401B022801D90320A5
:102DB000EBE672486C300068C0F340000028F1D0A8
:102DC00019E06E486C30006820F001006B496C31EE
:102DD0000860FEF7C7F8054606E0FEF7C3F8401B9B
:102DE000022801D90320D0E664486C300068C0F3A3
:102DF00040000028F1D1207800F00400042874D1AC
:102E00005E483830006800F0805080B900BF5B48F1
:102E10003830006840F08050584938310860084622
:102E2000006800F08050009000BF00BF01275448A8
:102E3000006800F48070B0B95148006840F48070B8
:102E40004F490860FEF78EF8054606E0FEF78AF85F
:102E5000401B642801D9032097E64948006800F424
:102E600080700028F2D000BFA068012808D1434834
:102E70006830006840F001004049683108602DE08A
:102E8000A06868B93D486830006820F001003B49FF
:102E9000683108600846006820F0040008601DE002
:102EA000A06805280DD135486830006840F004005E
:102EB0003249683108600846006840F00100086047
:102EC0000CE02E486830006820F001002B49683182
:102ED00008600846006820F00400086000BFA06891
:102EE000A8B1FEF73FF8054609E02EE0FEF73AF8F4
:102EF000401B41F28831884201D9032045E61F4832
:102F000068300068C0F340000028EFD013E0FEF7FF
:102F100029F8054608E0FEF725F8401B41F2883104
:102F2000884201D9032030E6144868300068C0F3B5
:102F300040000028EFD1012F07D110483830006839
:102F400020F080500D4938310860A069002854D025
:102F50000A48006800F00C00082867D0A069022821
:102F60004CD106480838006820F0807003490839C1
:102F70000860FDF7F7FF05460BE000000838024047
:102F800000700040FDF7EEFF401B022801D903202E
:102F9000FBE53F480068C0F340600028F2D1D4E967
:102FA00007010843616A40EA81110122A06AC2EB6D
:102FB000500041EA00412C20005D41EA00613020D0
:102FC000005D41EA00703249091D0860081F006871
:102FD00040F08070091F0860FDF7C4FF054606E059
:102FE000FDF7C0FF401B022801D90320CDE528488A
:102FF0000068C0F340600028F2D047E02448006831
:1030000020F0807022490860FDF7ACFF054606E01D
:10301000FDF7A8FF401B022801D90320B5E51C4895
:103020000068C0F340600028F2D12FE01848001D6E
:103030000668A069012827D006F48001E069814272
:1030400022D106F03F01206A81421DD147F6C070AF
:103050003040616AB0EB811F16D106F44031012285
:10306000A06AC2EB5000B1EB004F0DD106F07061C9
:103070002C20005DB1EB006F06D106F0E04130205E
:10308000005DB1EB007F01D001207EE500207CE5F2
:103090000038024070477047704710B504460CB9BD
:1030A000012010BD94F83D0028B9002084F83C00B0
:1030B000204600F00CF8022084F83D00211D206815
:1030C00000F0CEFE012084F83D000020E9E77047C3
:1030D00001460868C06840F001000B68D8600868C5
:1030E0008068084B00EA0302062A08D0B2F5803F48
:1030F00005D00868006840F001000B6818600020E7
:103100007047000007000100704710B504462068B2
:103110000069C0F34000D8B12068C068C0F3400027
:10312000B0B16FF0020021680861012020772068AB
:10313000806900F0030018B12046FFF7E5FF05E0C5
:10314000204600F0BEF8204600F0BCF800202077B2
:1031500020680069C0F38000D8B12068C068C0F35F
:103160008000B0B16FF00400216808610220207770
:103170002068806900F4407018B12046FFF7C4FF52
:1031800005E0204600F09DF8204600F09BF8002066
:10319000207720680069C0F3C000D8B12068C068FB
:1031A000C0F3C000B0B16FF00800216808610420CE
:1031B00020772068C06900F0030018B12046FFF7AF
:1031C000A3FF05E0204600F07CF8204600F07AF8E6
:1031D0000020207720680069C0F30010D8B1206873
:1031E000C068C0F30010B0B16FF010002168086132
:1031F000082020772068C06900F4407018B120468C
:10320000FFF782FF05E0204600F05BF8204600F063
:1032100059F8002020772068006900F0010058B1BB
:103220002068C06800F0010030B16FF00100216833
:103230000861204600F048F820680069C0F3C0101B
:1032400058B12068C068C0F3C01030B16FF0800082
:10325000216808612046FFF71EFF20680069C0F35F
:10326000002058B12068C068C0F3C01030B16FF4BE
:103270008070216808612046FFF70CFF2068006914
:10328000C0F3801058B12068C068C0F3801030B11E
:103290006FF0400021680861204600F021F82068A6
:1032A0000069C0F3401058B12068C068C0F34010F6
:1032B00030B16FF02000216808612046FFF7ECFE76
:1032C00010BD70477047000010B5044603492068E0
:1032D000884201D1FDF758FF10BD000000000140F9
:1032E000704700BFFEE730B50B46002100BF16E077
:1032F0000A24B4EB107F05D9302404EB107403F8D2
:10330000114005E0412404EB10740A3C03F811401D
:10331000000100254C00641C1D554C1CE1B291427B
:10332000E6DB30BD10B5FDF78DFC002010BD70B59B
:1033300086B004460025002005902046FDF7B4FB2A
:103340000546002000900295012003900220049081
:1033500005A96846FDF720FC064616B1012006B017
:1033600070BD0020FBE7034641B1012905D13220A1
:10337000507000209070D07006E000BF3220507076
:1033800000209070D07000BF00BF0020704710B5C3
:10339000FDF7B4FC002010BD30B5034614460022F2
:1033A0001D4600BF03E015F8010B8854521CA242D1
:1033B000F9D3084630BD2DE9F04105460E461746C3
:1033C000002400BF12E055F804C031196246002302
:1033D0000220FDF741FC30B928593159884204D008
:1033E0000220BDE8F0810120FBE7241DBC42EAD3A6
:1033F0000020F6E700B587B0142102A8FCF762FFB1
:1034000000BFFE48006840F01000FC490860084614
:10341000006800F01000019000BF00BF00BF084628
:10342000006840F0040008600846006800F00400EE
:10343000019000BF00BF00BF0846006840F48070E4
:1034400008600846006800F48070019000BF00BF6B
:1034500000BF0846006840F0200008600846006889
:1034600000F02000019000BF00BF00BF08460068C8
:1034700040F0800008600846006800F0800001907D
:1034800000BF00BF00BF0846006840F001000860B0
:103490000846006800F00100019000BF00BF00BFB7
:1034A0000846006840F0020008600846006800F026
:1034B0000200019000BF00BF00BF0846006840F056
:1034C000400008600846006800F04000019000BF1E
:1034D00000BF00BF0846006840F0080008600846CA
:1034E000006800F00800019000BF00BF00224FF408
:1034F0000161C348FDF730FD00220C21C148FDF7F2
:103500002BFD7020029002200390002004900320E5
:1035100005900E20069002A9BB48FDF709FC40F279
:103520001560029002200390002004900320059073
:103530000E20069002A9B548FDF7FAFB4FF63F00B2
:1035400002900220039000200490032005900C209C
:10355000069002A9AE48FDF7EBFBC02002900220C6
:10356000039000200490032005900920069002A9F2
:10357000A748FDF7DDFB4FF4407002900220039056
:1035800000200490032005900A20069002A9A0487C
:10359000FDF7CEFB4FF480600290022003900020E4
:1035A0000490032005900E20069002A99848FDF78C
:1035B000BFFB012002900220039000200490032012
:1035C00005900C20069002A99248FDF7B1FB32202D
:1035D00002900220039000200490032005900B200D
:1035E000069002A98B48FDF7A3FB862002900220DB
:1035F000039000200490032005900B20069002A960
:103600008548FDF795FB4AF20C10029002200390CA
:1036100000200490032005900E20069002A97F4808
:10362000FDF786FB302002901220039001200490C9
:10363000032005900420069002A97848FDF778FB46
:1036400041F608000290022003900020049003201D
:1036500005900E20069002A96F48FDF769FB5020E7
:103660000290022003900020049005900D20069007
:1036700002A96948FDF75CFB032002900220039039
:1036800000200490032005900920069002A96448B8
:10369000FDF74EFB042002900220039000200490CE
:1036A000032005900920069002A95D48FDF740FB24
:1036B00048F233100290022003900020049003206F
:1036C00005900C20069002A94E48FDF731FB4FF6FD
:1036D0008370029002200390002004900320059044
:1036E0000C20069002A94848FDF722FB4FF48060A9
:1036F00002900220039000200490032005900720F0
:10370000069002A94648FDF713FB4FF400600290B3
:103710000220039000200490032005900B200690C7
:1037200002A93F48FDF704FBC0200290022003904D
:1037300000200490032005900C20069002A9374831
:10374000FDF7F6FA4FF4BC400290022003900020EF
:10375000049005900D20069002A93048FDF7E8FA84
:103760004CF203700290022003900020049003208A
:1037700005900C20069002A92148FDF7D9FA4FF4D4
:10378000016002900120039000200490059002A99E
:103790001B48FDF7CDFA0C20029001200390002079
:1037A0000490059002A91748FDF7C2FA4FF4C650DD
:1037B00002900220039000200490032005900E2028
:1037C000069002A90F48FDF7B3FA8020029002206C
:1037D000039000200490032005900E20069002A97B
:1037E0000C48FDF7A5FA4FF4E85002900220039030
:1037F00000200490032005900C2013E03038024094
:10380000000C02400018024000100240002002405C
:10381000001402400008024000000240001C024068
:1038200000040240069002A95B48FDF781FA4FF4BC
:1038300000700290022003900020049005900690F2
:1038400002A95548FDF774FA4FF4807002900220E7
:103850000390002004900590069002A94F48FDF7C0
:1038600067FA4FF4C0600290022003900020049099
:10387000032005900720069002A94848FDF758FA52
:103880000420029002200390002004900320059061
:103890000C20069002A94248FDF74AFA082002903F
:1038A000022003900020049005900D20069002A9AC
:1038B0003B48FDF73DFA20200290022003900020B3
:1038C0000490032005900720069002A93448FDF7D4
:1038D0002FFA402002900220039000200490032041
:1038E00005900E20069002A92D48FDF721FA4FF40D
:1038F0008060029002200390002004900320059035
:103900000920069002A92748FDF712FA4FF4C0409B
:1039100002900220039000200490032005900B20C9
:10392000069002A91F48FDF703FA402002900220EA
:10393000039000200490032005900A20069002A91D
:103940001948FDF7F5F980200290184803900020EF
:10395000049002A91448FDF7EBF94FF4407002906F
:103960000220039000200490032005900E20069072
:1039700002A90D48FDF7DCF9E02002900220039037
:103980000020049005900D20069002A90848FDF73C
:10399000CFF907B000BD000000080240000002405F
:1039A000000C024000180240000402400000111008
:1039B0000020024010B512481249086012484860C1
:1039C0000021104881600121C16000210161416135
:1039D0008161C1610162FDF735FB08B1FCF717FF9A
:1039E00000210848FDF7C4FA08B1FCF710FF0021D8
:1039F0000448FDF7F2FA08B1FCF709FF10BD00001A
:103A00000060004000010020FFEAC00010B5012264
:103A10000D490E4800F03AFF08B1FCF7F8FE0C49DA
:103A20000A4801F0CAF908B1FCF7F1FE0949074854
:103A300000F020FC08B1FCF7EAFE044801F09AFA15
:103A400008B1FCF7E4FE10BD080000204C01002086
:103A5000980000206800002000BFFEE710B5FFF7C7
:103A60007FF810BD10B50248FDF734FE10BD000010
:103A70001C0400202DE9F04704460D462668374611
:103A8000D6F8408007F5306000EB4510D0F808907C
:103A9000104880450BD909F40040B0F5004F06D11D
:103AA0004FF4004107F5306000EB4510816020467F
:103AB000FEF733FA0748804508D92069012805D167
:103AC00004F571720121206801F006FF0020BDE8B5
:103AD000F08700000A30544F2DE9F04705460C46A8
:103AE000D5F800804646D8F8409006F5306000EBE7
:103AF000441087682869012873D107F00800082856
:103B00000FD1524881450BD907F40040B0F5004F62
:103B100006D14FF4004106F5306000EB441081609F
:103B200091E007F02000202806D1202106F5306022
:103B300000EB4410816086E007F0280000280ED1D9
:103B4000424881450CD907F40040B0F5004F07D139
:103B50004FF4004106F5306000EB4410816072E0E4
:103B6000C4EBC40105F5FE7000EB8100816806F529
:103B7000306000EB44100069C0F31200091AC4EB76
:103B8000C40205F5FE7000EB82008161C4EBC40144
:103B900005F5FE7000EB8100C4EBC402C16805F5B9
:103BA000FE7000EB820080680144C4EBC40205F59E
:103BB000FE7000EB8200C1606CB9C4EBC40105F576
:103BC000FE7000EB8100406928B905F57172012192
:103BD000286801F081FEE1B22846FDF742FC32E0A0
:103BE000FFE71B4881451BD107F40040B0F5004FAB
:103BF00007D14FF4004106F5306000EB44108160BE
:103C000021E007F02000202805D1202106F53060B2
:103C100000EB44108160E1B22846FDF722FC12E07F
:103C20006CB9C4EBC40105F5FE7000EB810040697E
:103C300028B905F571720021286801F04DFEE1B246
:103C40002846FDF70EFC0020BDE8F0870A30544FEF
:103C50000A31544F2DE9F84F07460E46D7F8009029
:103C6000C846C6EBC60107F13C0000EB8104D4E96D
:103C70000510884202D90120BDE8F88FD4E905017A
:103C8000451AA068A84200D2A568E81C4FEA900A2D
:103C900017E0D4E90501451AA068A84200D2A5683A
:103CA000E81C4FEA900A387CABB2F2B2009048466A
:103CB000E16802F0F9F9E0682844E060A06928446E
:103CC000A06108F5106000EB4610806980B2504595
:103CD00006D3D4E90510884202D260690028D8D101
:103CE000D4E9050188420ED806F00F01012000FA40
:103CF00001FB40F6340050F8080020EA0B0040F6C3
:103D0000340141F808000020B6E77047704730B52D
:103D100001460A461378521C147843EA042030BD49
:103D200000B5B7B034212AA8FCF7CCFA142125A895
:103D3000FCF7C8FA902101A8FCF7C4FAFEF798F93D
:103D400000BF3948006840F0805037490860084695
:103D5000006800F08050009000BF00BF00BF3348F3
:103D6000006840F44040314908600846006800F4AB
:103D70004040009000BF00BF01202A9000042B901B
:103D80000220309041052AA8C16119210162090170
:103D90004162022181620821C162FEF7F1FE08B191
:103DA000FCF735FDFEF71CF908B1FCF730FD0F20DC
:103DB000259002202690002027904FF4A0502890B4
:103DC0004FF480502990062125A8FEF709FD08B17F
:103DD000FCF71DFD16480190C020029002210591BC
:103DE00004210391022104914FF490700690032165
:103DF000089102210791099101200A900B9000205F
:103E00000C901D908806209001A8FEF73BF908B1A0
:103E1000FCF7FDFC4FF0806211010120FEF744FE2B
:103E2000FEF7A8FD37B000BD4038024000700040EA
:103E3000000022020548006840F470000349086051
:103E40004FF00060014980390860704788ED00E05C
:103E500010B50248FFF759F910BD0000200A0020F4
:103E600010B50268294B98420ED0B0F1804F0BD0AC
:103E7000274B984208D0274B984205D0264B9842B2
:103E800002D0264B984203D122F070024B681A43AD
:103E90001E4B984220D0B0F1804F1DD01C4B984251
:103EA0001AD01C4B984217D01B4B984214D01B4B76
:103EB000984211D01A4B98420ED01A4B98420BD010
:103EC000194B984208D0194B984205D0184B98428C
:103ED00002D0184B984203D122F44072CB681A43A7
:103EE00022F080034C6943EA040202608B68C362DB
:103EF0000B688362054B984202D0084B984201D16F
:103F00000B6903630123436110BD00000000014001
:103F10000004004000080040000C00400004014084
:103F200000400140004401400048014000180040AA
:103F3000001C00400020004070B504460D46D4F837
:103F4000B80228B1D4F8B802294642682046904702
:103F5000002070BD70B504460D4694F89C020128FF
:103F600004D0022803D003280CD101E000BF00BF19
:103F70006888012805D10020C4F8A402204600F07A
:103F80005EF804E02946204600F01BF800BF00BFA1
:103F900070BD70B506460C4615462B4622460021DC
:103FA000304600F0E9FD002070BD70B506460C46B5
:103FB00015462B4622460021304600F0CBFE00205D
:103FC00070BD70B504460D468021204600F087FE86
:103FD0000021204600F083FE70BD70B504460E46F9
:103FE00015460320C4F894024FF4AC700551001D2F
:103FF00005512B4632460021204600F0BDFD002031
:1040000070BD10B504460520C4F8940200231A467A
:104010001946204600F0B0FD002010BD70B50446E2
:104020000E4615460220C4F89402A561E5612B46B0
:1040300032460021204600F08DFE002070BD10B5F4
:1040400004460420C4F8940200231A461946204668
:1040500000F080FE002010BD70B504460E46D4F876
:10406000BC0208B9022070BDD4F8BC520020C5F8CB
:104070000004C5F80404022085F81804002085F81F
:104080001004022140F214404155D4F8C01288684F
:104090008047D4F8BC0202F053F80020C4F8BC02F8
:1040A00000BFE0E70146002070472DE9FC410546CE
:1040B000D5F8BC42D5F8C07294F8180404287ED113
:1040C000D4F80004002856D1D4F80404012800D103
:1040D00065E0D4F8040405283ED12078212818D1C1
:1040E0006078C4F80804A178D4F8080400EB012033
:1040F000C4F80804E178D4F8080400EB0140C4F8DF
:1041000008042179D4F8080400EB0160C4F808041D
:1041100045E02078412842D16078C4F80804A178AD
:10412000D4F8080400EB0120C4F80804E178D4F8BE
:10413000080400EB0140C4F808042179D4F808040D
:1041400000EB0160C4F80804D4F80804F968884753
:1041500028B30320BDE8FC810020C4F80404C4F89F
:1041600000048DF800000120ADF8060069462846DD
:10417000FFF727FF13E0D4F8000401280FD9D4F883
:104180000004801ED4F8081401EB8026D4F804241F
:10419000314620463B69984708B10320DAE7002002
:1041A000C4F80404C4F80004032084F818040021AF
:1041B00040F211400155401C0155401C00E005E053
:1041C000015594F81814401C015506E094F81804A1
:1041D000072802D12846FCF731FA0020BAE7000090
:1041E00001461B200880014870470000D0000020D5
:1041F00001460A200880014870470000EC000020BA
:1042000070B505460E4640F21C4001F0F3FF04462F
:1042100024B90020C5F8BC02022070BDC5F8BC421C
:10422000002004F58064E0601148A0600020206058
:10423000606060760220207600202074A4F58064FF
:10424000002140F211400155401C0155401C015510
:104250000221401C01550021401C0155D5F8C01217
:104260004868804708B10320D7E70020D5E7000061
:1042700000800008024609B903207047C2F8C01246
:104280000020FAE701460020704700002DE9F843BE
:1042900005460C46D5F8BC620027B846B946002052
:1042A0000090207800F0600088B3202872D16078F8
:1042B000072824D2DFE800F01E04090E12161A00A7
:1042C00021462846FCF7E8F81FE021462846FCF77F
:1042D00007FA1AE02846FCF733F916E02846FCF7FF
:1042E00061F812E02846FCF720F90EE02846FCF7BA
:1042F00027F80AE021462846FCF788F805E0214621
:104300002846FFF75EFE032700BF00BF68E0FFE717
:104310006078062819D003DC38B1012852D150E06A
:104320000A2826D00B284DD135E095F89C020328A9
:1043300005D1022269462846FFF770FE04E02146B7
:104340002846FFF73EFE032742E060882121B1EBBB
:10435000202F08D1DFF89080E088092801D90920B2
:1043600000E0E08881464A4641462846FFF756FE6F
:104370002EE095F89C02032806D101222846D6F8A3
:104380000C14FFF74BFE04E021462846FFF719FE08
:1043900003271DE01EE0A07868B995F89C02032869
:1043A00003D1A078C6F80C040AE021462846FFF79E
:1043B00008FE032704E021462846FFF702FE0327F4
:1043C00006E005E021462846FFF7FBFD032700BF76
:1043D00000BF05E021462846FFF7F3FD032700BF95
:1043E00000BF3846BDE8F883E200002070B50446FF
:1043F0000D46E888012804D029462046FFF7E1FD54
:104400001EE094F89C02012804D0022803D003285F
:1044100010D109E000BF0020A060012204F10801D2
:104420002046FFF7FBFD0AE00122211D2046FFF791
:10443000F5FD04E029462046FFF7C3FD00BF00BF9D
:1044400070BDF8B504460E460020009000270025F8
:1044500070880012062874D006DC01281BD00228C0
:1044600021D003286ED132E007286CD00F28F9D173
:10447000D4F8B402C06938B1207CD4F8B412CA6947
:1044800069469047074605E031462046FFF799FD0B
:10449000681CC5B2CBE0207CD4F8B4120A68694627
:1044A00090470746C3E0207C40B9D4F8B802816A3F
:1044B0006846884707460220787007E0D4F8B802BB
:1044C000C16A68468847074602207870AFE0B07836
:1044D00006287AD2DFE800F00316293F5265D4F8A7
:1044E000B402406838B1207CD4F8B4124A686946F6
:1044F0009047074605E031462046FFF762FD681CFD
:10450000C5B269E0D4F8B402806838B1207CD4F830
:10451000B4128A6869469047074605E0314620464E
:10452000FFF74FFD681CC5B256E0D4F8B402C0686E
:1045300050B1207CD4F8B412CA6869469047074647
:1045400008E04BE06CE059E031462046FFF739FDCA
:10455000681CC5B240E0D4F8B402006938B1207CD0
:10456000D4F8B4120A6969469047074605E0314617
:104570002046FFF726FD681CC5B22DE0D4F8B40232
:10458000406938B1207CD4F8B4124A696946904732
:10459000074605E031462046FFF713FD681CC5B20B
:1045A0001AE0D4F8B402806940B1207CD4F8B41287
:1045B0008A6969469047074606E006E0314620468C
:1045C000FFF7FFFC681CC5B206E031462046FFF746
:1045D000F8FC681CC5B200BF00BF28E0207C30B9E1
:1045E000D4F8B802416B68468847074605E0314673
:1045F0002046FFF7E6FC681CC5B218E0207C40B9F5
:10460000D4F8B802016B68468847074607207870DF
:1046100005E031462046FFF7D4FC681CC5B206E031
:1046200031462046FFF7CDFC681CC5B200BF00BF75
:1046300005B1F8BDF088C0B1BDF8000080B1F088C8
:10464000BDF80010884202DDBDF8000000E0F088EF
:104650000090BDF8002039462046FFF7DFFC07E058
:1046600031462046FFF7ADFC02E02046FFF7E7FCAD
:1046700000BFDEE7014600200A4602E0431CD8B234
:10468000521C1378002BF9D1704770B504460D46C3
:1046900094F89C02012804D0022803D003281AD1E0
:1046A00001E000BF00BFE888022804D02946204668
:1046B000FFF787FC14E00120E060D4F8A40218B1F1
:1046C000E06840F00200E060022204F10C012046A4
:1046D000FFF7A4FC04E029462046FFF772FC00BF68
:1046E00000BF70BD2DE9F04107460D4690460024FD
:1046F0000FB9BDE8F0813E463046FFF7BBFF02210F
:1047000001EB4000A8F8000098F800002855601C54
:10471000C4B203202855601CC4B208E03078285584
:10472000761C601CC4B200202855601CC4B23078CE
:104730000028F3D100BFDCE70146002031B1012998
:1047400006D0022906D0032908D105E0002007E0A1
:10475000032005E0012003E0032001E0032000BF67
:1047600000BF704770B505460C462DB92246064974
:1047700006A0FFF7B7FF04E02246034903A0FFF7B6
:10478000B1FF014870BD00002008002044465520BC
:10479000436F6E6669670000024612200880014878
:1047A000704700002800002070B505460C462DB962
:1047B0002246064906A0FFF795FF04E0224603497A
:1047C00003A0FFF78FFF014870BD00002008002004
:1047D00044465520496E7465726661636500000049
:1047E000024604200880014870470000480000206D
:1047F00070B505460C462246024903A0FFF772FF3A
:10480000004870BD2008002053544D6963726F65E5
:104810006C656374726F6E696373000070B50546F2
:104820000C462DB92246064906A0FFF75BFF04E0BF
:104830002246034903A0FFF755FF014870BD000061
:104840002008002053544D333220446F776E4C6F54
:104850006164204669726D7761726520557064618C
:104860007465000070B505460C461A202080FCF7E0
:1048700065F9014870BD00004C00002002460C2084
:1048800008800148704700003C0000202DE9F041FD
:1048900004460D46164614B90320BDE8F081D4F84D
:1048A000B80210B10020C4F8B802D4F8CC0210B19C
:1048B0000020C4F8CC020DB1C4F8B452012084F831
:1048C0009C022670204600F0E5F807463846E4E7EB
:1048D0002DE9F04104460D46002600272946D4F86C
:1048E000C402FCF7D5FD06463046FFF725FF074614
:1048F0003846BDE8F0812DE9F04104460F46904668
:10490000002F54D104F11405D4F89402022843D1A5
:10491000D5E9020188420FD9D5E90201401AA86001
:1049200041462046AA68FFF740FB00231A46194675
:10493000204600F021F92FE0D5E90210884217D176
:10494000E9686868884213D36868D4F89812884286
:104950000ED2002211462046FFF727FB0020C4F8A4
:10496000980200231A461946204600F005F913E084
:10497000D4F8B802C06840B194F89C02032804D16E
:10498000D4F8B802C168204688478021204600F04C
:10499000A6F92046FFF735FB94F8A00201281BD1A9
:1049A000204600F01DFA002084F8A00214E0D4F89C
:1049B000B802406970B194F89C0203280AD1D4F877
:1049C000B8023946426920469047064626B130462D
:1049D000BDE8F0810320FBE70020F9E72DE9F04175
:1049E00005460F4690465FBB05F5AA74D5F89402BC
:1049F00003283AD1D4E90201884210D9D4E902014E
:104A0000401AA060D4E90201884201D2A06800E007
:104A1000E068024641462846FFF7BBFA25E0D5F894
:104A2000B802006940B195F89C02032804D1D5F87A
:104A3000B8020169284688472846FFF700FB14E0C2
:104A4000D5F8B802806970B195F89C0203280AD1A4
:104A5000D5F8B8023946826928469047064626B1FD
:104A60003046BDE8F0810320FBE70020F9E701466E
:104A70000020704710B50446012084F89C02D4F849
:104A8000B80228B12179D4F8B8024268204690478C
:104A9000002010BD10B50446207801282CD11748FD
:104AA000C0F80044C4F8C40215481449086009203D
:104AB000486002211148C160002101610221816129
:104AC0000021C16101624162C16201634163FDF77E
:104AD000E3F808B1FBF79BFE4FF400710748FCF7C1
:104AE0007DFC802200210548FCF77DFC4FF4BA7262
:104AF00001210248FCF777FC002010BD1C040020B7
:104B00000000044010B50246D2F8C43201F0800023
:104B1000802809D101F07F00C0EBC00403F13C0004
:104B200000EB8400807810BD01F07F00C0EBC00472
:104B300003F5FE7000EB84008078F4E70246002065
:104B400070470246002070472DE9F04704460F46A3
:104B500015461E464FF00008C1462B4632463946E0
:104B6000D4F8C402FCF7D2FC80464046FFF7E4FDCF
:104B700081464846BDE8F0872DE9F04704460D46DA
:104B800016461F464FF00008C1463B4632462946AE
:104B9000D4F8C402FCF700FD80464046FFF7CCFD88
:104BA00081464846BDE8F08710B50446012084F8E8
:104BB0009C020020C4F894026060C4F8A402D4F8F7
:104BC000BC0228B12179D4F8B80242682046904747
:104BD0004023002211462046FFF7B6FF01214FF483
:104BE000B27001534021001F015140230022802157
:104BF0002046FFF7A9FF0121A18440212162002066
:104C000010BD014691F89C02042803D191F89D0241
:104C100081F89C020020704710B5044694F89C026D
:104C2000032808D1D4F8B802C06920B1D4F8B8027A
:104C3000C16920468847002010BD0246117400203B
:104C400070472DE9F04104460D460026002729460D
:104C5000D4F8C402FDF746F906463046FFF76CFD6E
:104C600007463846BDE8F08170B504460D46294632
:104C700004F2AA2000F086F80120C4F894024FF450
:104C80002C70005BC4F8980294F8AA0200F01F0090
:104C900020B1012809D0022815D10DE004F2AA2183
:104CA000204600F06DF9064616E004F2AA212046DF
:104CB00000F0CEFA06460FE004F2AA21204600F0EA
:104CC000B2F9064608E094F8AA0200F080012046F6
:104CD00000F005F8064600BF00BF304670BD2DE964
:104CE000F04104460D46002600272946D4F8C402A8
:104CF000FCF77EFC06463046FFF71EFD07463846A9
:104D0000BDE8F08170B5044600250026D4F8C40241
:104D1000FDF70CF905462846FFF70EFD064630461E
:104D200070BD70B5044600250026D4F8C402FDF716
:104D300017F905462846FFF7FFFC0646304670BDCA
:104D4000014691F89C0281F89D02042081F89C02A2
:104D5000002070472DE9F04704460D4616461F46D1
:104D60004FF00008C1463B4632462946D4F8C402FB
:104D7000FCF783FC80464046FFF7DEFC8146484650
:104D8000BDE8F08770B505460E4634462078287099
:104D9000641C20786870641C2046FEF7B8FF6880A9
:104DA000641C641C2046FEF7B2FFA880641C641CCF
:104DB0002046FEF7ACFFE88070BD38B504460D46CE
:104DC000002000900DB9032038BDC4F8B852D4F8C3
:104DD000B802816A68468847C4F8CC020020F3E72D
:104DE00001460020704770B504460D46A88810BBE8
:104DF000E88800BB688880281DD2A87800F07F066C
:104E000094F89C02032804D129462046FFF7D9F8DC
:104E100015E084F89E6231462046FFF712FF2046D7
:104E2000FFF70DF91EB1022084F89C0207E0012073
:104E300084F89C0203E029462046FFF7C2F870BDC3
:104E400070B504460D460326D4F8B80230B1D4F844
:104E5000B80229460268204690470646304670BD93
:104E600070B504460E460025B0783B4908700846E8
:104E70000078012805D931462046FFF7A2F8032023
:104E800070BD94F89C02022802D0032856D11CE081
:104E900031480078A8B13048007860602E48017829
:104EA0002046FFF7CDFF054625B131462046FFF7E6
:104EB00088F809E02046FFF7C2F8032084F89C0236
:104EC00002E02046FFF7BBF843E02348007870B9C2
:104ED000022084F89C022048007860601E48017817
:104EE0002046FFF729F82046FFF7A9F825E01A49E0
:104EF0000978606888421DD021792046FFF71CF8A8
:104F0000154800786060144801782046FFF798FF44
:104F100005465DB131462046FFF753F8217920461A
:104F2000FFF70AF8022084F89C0206E02046FFF70B
:104F300086F802E02046FFF782F80AE03146204674
:104F4000FFF73FF8044801782046FEF7F5FF0325F8
:104F500000BF00BF284693E79400002070B50546C7
:104F60000C466088012804D1C5F8A4022846FFF742
:104F700066F870BD10B504462046FFF7C3FE10BDAD
:104F800070B505460C460026207800F0600068B138
:104F9000202802D040283ED100E000BFD5F8B8025A
:104FA0002146826828469047064639E060780A28FC
:104FB0002AD2DFE800F01A24291F290A0529150F33
:104FC00021462846FFF73DFA23E021462846FFF711
:104FD0000AFF1EE021462846FFF742FF064618E07A
:104FE00021462846FFF702FA13E021462846FFF73C
:104FF0004CFB0EE021462846FFF7B0FF09E02146B2
:105000002846FEF7A7FF04E021462846FEF7D9FF11
:1050100000BF00BF04E021462846FEF7D2FF00BFD4
:1050200000BF304670BD2DE9F04105460E464FF0F9
:1050300000083479307800F0600068B1202802D090
:10504000402870D100E000BFD5F8B8023146826830
:10505000284690478046F7E07078002864D0012801
:105060002FD003286FD195F89C02022802D0032884
:1050700020D110E054B1802C08D021462846FFF7FB
:105080002EFE80212846FFF72AFE03E031462846FF
:10509000FEF797FF13E0708840B93CB1802C05D033
:1050A000F08818B921462846FFF719FE2846FEF772
:1050B000C6FF04E031462846FEF783FF00BF00BF6D
:1050C000BBE095F89C02022802D0032824D110E00E
:1050D00054B1802C08D021462846FFF700FE8021DD
:1050E0002846FFF7FCFD03E031462846FEF769FF3E
:1050F00017E0708878B904F07F0018B1214628467F
:10510000FFF7E6FB2846FEF79AFFD5F8B8023146CE
:1051100082682846904704E031462846FEF751FF52
:1051200000BF00BF89E08AE095F89C02022802D007
:10513000032876D126E03CB1802C05D031462846A4
:10514000FEF73FFF72E073E004F08000802808D192
:1051500004F07F0000EB800105F1140000EB8100FA
:1051600007E004F07F0000EB800105F5AA7000EB7A
:105170008100074600203860022239462846FEF7A3
:105180004DFF53E004F0800080280ED104F00F00A2
:1051900000EB800105F1140000EB8100008A98B952
:1051A00031462846FEF70DFF40E004F00F0000EB0B
:1051B000800105F5AA7000EB8100008A20B9314614
:1051C0002846FEF7FEFE31E004F08000802808D17A
:1051D00004F07F0000EB800105F1140000EB81007A
:1051E00007E004F07F0000EB800105F5AA7000EBFA
:1051F000810007460CB1802C02D10020386009E004
:1052000021462846FFF77EFC10B10120386001E0FE
:1052100000203860022239462846FEF7FFFE05E0EE
:10522000FFE731462846FEF7CCFE00BF00BF04E092
:1052300031462846FEF7C5FE00BF00BF04E03146F8
:105240002846FEF7BEFE00BF00BF4046BDE8F08125
:1052500070B505460C460026207800F0600030B19D
:10526000202802D040282AD100E000BF00BF95F8D6
:105270009C02012804D0022803D0032818D101E0A1
:1052800000BF00BF207901280DD8D5F8B80221460B
:105290008268284690470646E08840B93EB92846CD
:1052A000FEF7CDFE03E021462846FEF78AFE04E025
:1052B00021462846FEF785FE00BF00BF04E02146D8
:1052C0002846FEF77EFE00BF00BF304670BD70B5B9
:1052D0000446D4F8B80228B12179D4F8B80242685B
:1052E00020469047D4F8CC0210B10020C4F8CC027C
:1052F0002046FFF716FD0546284670BD70B50446EA
:105300000B4622461978587801282CD140F61C000B
:1053100080581D7805F00F060125B540ADB2284331
:1053200040F61C05A85002F5106000EB4110006823
:1053300000F40040F0BB1889C0F30A00DD7840EAB1
:10534000854040EA815040F0805040F4004002F532
:10535000106505EB41152D68284302F5106505EB36
:10536000411528602DE040F61C0080581D7805F09E
:105370000F060125B540144E06EA0545284340F6C0
:105380001C05A85002F5306000EB4110006800F4E5
:10539000004078B91889C0F30A00DD7840EA8540FA
:1053A00040F0805040F4004002F5306505EB4115B7
:1053B0002D6800E005E0284302F5306505EB411556
:1053C0002860002070BD00000000FFFF01460A4673
:1053D0004FF410608058C30ADB024FF41060835012
:1053E00040F60400805840F4807340F60400835077
:1053F000002070470FB470B504460A98012817D1F1
:10540000A06B20F48030A063E06817490840E0609A
:10541000E06820F44010E0601198012803D1E068B2
:1054200040F48010E060204600F020F805460BE0D4
:10543000E06840F04000E060204600F017F80546C4
:10544000A06B40F48030A0630898012807D1A068C1
:1054500040F00600A060A06840F02000A060284650
:1054600070BC5DF814FB0000BFFFBDFF01460022C9
:1054700000BF501C02460F4B984201D903207047D1
:10548000086900F000400028F3D00022086940F0CD
:105490000100086100BF501C0246064B984201D92A
:1054A0000320ECE7086900F001000028F3D100BFF9
:1054B000E5E70000400D030070B50446254640F6C0
:1054C0000400405920F0020140F60400415103203D
:1054D000FBF74EFB002070BD70B50446254640F634
:1054E0000400405940F0020140F6040041510320FD
:1054F000FBF73EFB002070BD0FB4F0B50646002759
:105500003546002405E0002106F5827040F824109D
:10551000641C0F2CF7D31098A0B940F60400405932
:1055200040F0020140F604004151B06B20F400103D
:10553000B063306840F040003060306840F0800078
:10554000306003E0B06B40F40010B0630020C5F899
:10555000000ED5F80008C5F800080B9801280BD1FB
:10556000089820B90021304600F0F2FC17E0012134
:10557000304600F0EDFC12E00B9803280BD10898A0
:1055800020B90021304600F0E3FC08E0012130465C
:1055900000F0DEFC03E00321304600F0D9FC1021CE
:1055A000304600F025FC00B10127304600F00AFC2F
:1055B00000B1012700214FF401604151001D41510C
:1055C00040F61C00415100242EE005F5106000EB70
:1055D0004410006800F00040B0F1004F10D13CB919
:1055E0004FF0006105F5106000EB441001600DE024
:1055F0004FF0904105F5106000EB4410016005E0AC
:10560000002105F5106000EB44100160002105F554
:10561000106000EB441001614FF67F3105F510601A
:1056200000EB44108160641C0698A042CDD8002491
:105630002EE005F5306000EB4410006800F00040FB
:10564000B0F1004F10D13CB94FF0006105F530606A
:1056500000EB441001600DE04FF0904105F5306023
:1056600000EB4410016005E0002105F5306000EB1F
:1056700044100160002105F5306000EB4410016129
:105680004FF67F3105F5306000EB44108160641CFB
:105690000698A042CDD84FF40160405920F48071A3
:1056A0004FF4016041510020B0616FF080407061A3
:1056B000099818B9B06940F01000B061B0690A49A2
:1056C0000843B0610C9818B1B06940F00800B061AF
:1056D0001098012803D1B06904490843B0613846E5
:1056E000F0BC5DF814FB000000383C800400004072
:1056F0000146886820F001008860002070470000A3
:10570000F0B505460B4614462A4619785878012804
:1057100075D1586920BB02F5106000EB411000699B
:105720006C4E304002F5106606EB4116306102F512
:10573000106000EB4110006940F4002602F5106093
:1057400000EB4110066102F5106000EB41100069AA
:10575000C60CF60402F5106000EB4110066137E05C
:1057600002F5106000EB41100069C60CF60402F56A
:10577000106000EB4110066102F5106000EB411073
:105780000069544E304002F5106606EB4116306158
:105790009E685869B04201D99868586102F5106056
:1057A00000EB4110006940F4002602F5106000EBA8
:1057B0004110066102F5106000EB411000695E695E
:1057C000C6F31206304302F5106606EB411630614F
:1057D000012C15D1186928B102F5106000EB4110B9
:1057E0001E69466102F5106000EB4110006840F050
:1057F000044602F5106000EB4110066068E01BE013
:1058000002F5106000EB4110006840F0044602F51C
:10581000106000EB411006605869002858D040F62F
:10582000340080581E7806F00F070126BE40304332
:1058300040F63406B0504BE002F5306000EB41100A
:105840000069C60CF60402F5306000EB41100661F9
:1058500002F5306000EB411000691E4E304002F549
:10586000306606EB41163061586908B19868586196
:1058700002F5306000EB4110006940F4002602F5AB
:10588000306000EB4110066102F5306000EB411022
:1058900000699E68C6F31206304302F5306606EBD7
:1058A00041163061012C07D1D86828B102F530606B
:1058B00000EB4110DE68466102F5306000EB4110FC
:1058C000006840F0044602F5306000EB41100660CD
:1058D0000020F0BDFFFF07E070B503460C461946F7
:1058E0001D6C1848854209D94FF43060405800F0CB
:1058F0000040B0F1004F01D1002070BD0026C1F87A
:10590000106BD1F8100B40F40026C1F8106BD1F8E1
:10591000100B40F01806C1F8106BD1F8100B40F0D6
:10592000C046C1F8106B012C09D1C1F8142B4FF4FB
:105930003060405840F080264FF4306046500020E0
:10594000DBE700000A30544F30B504460B462246D0
:105950001978587801281ED102F5106000EB41102B
:10596000006820F4001502F5106000EB411005609E
:10597000D878032802D0D87802282AD102F51060FE
:1059800000EB4110006840F0805502F5106000EB1C
:10599000411005601DE002F5306000EB4110006829
:1059A00020F4001502F5306000EB41100560D87856
:1059B000032802D0D87802280BD102F5306000EB22
:1059C0004110006840F0805502F5306000EB411056
:1059D0000560002030BD30B504460B4622461978DC
:1059E0005878012821D102F5106000EB41100068C1
:1059F00000F0004060B959B102F5106000EB4110B1
:105A0000006820F0804502F5106000EB4110056051
:105A100002F5106000EB4110006840F4001502F53B
:105A2000106000EB4110056020E002F5306000EBF3
:105A30004110006800F0004060B959B102F53060D3
:105A400000EB4110006820F0804502F5306000EB6B
:105A50004110056002F5306000EB4110006840F431
:105A6000001502F5306000EB41100560002030BDEC
:105A70002DE9F84381460E4617464D463478707836
:105A800001287DD1706920BB05F5106000EB441042
:105A90000069C749084005F5106101EB4411086130
:105AA00005F5106000EB4410006940F4002105F595
:105AB000106000EB4410016105F5106000EB44102C
:105AC0000069C10CC90405F5106000EB44100161C8
:105AD00055E005F5106000EB44100069C10CC904E5
